:020000040800F2
:1000000078CC022081020008D1750008C5420008A2
:10001000CD750008C1090008A19800080000000083
:10002000000000000000000000000000C101000806
:10003000090F0008000000001D02000815820008DA
:100040009B0200089B0200089B020008E17A00085E
:100050009B0200089B0200080B0F00089B0200088F
:100060009B0200089B0200089B0200089B020008FC
:100070009B0200089B0200089B0200089B020008EC
:100080009B0200089B0200089B0200089B020008DC
:100090009B0200089B0200089B0200089B020008CC
:1000A0009B0200089B0200089B0200089B020008BC
:1000B0009B02000825830008358300089B02000886
:1000C0009B0200089B0200089B0200089B0200089C
:1000D0009B0200089B0200089B0200089B0200088C
:1000E0009B020008B17900089B0200089B020008EF
:1000F0009B0200089B0200089B0200089B0200086C
:100100009B020008817B00089B0200089B020008FC
:100110009B0200089B0200089B0200089B0200084B
:10012000350D00089B0200089B020008450D0008E1
:100130009B0200089B0200089B0200089B0200082B
:100140009B0200089B0200089B0200089B0200081B
:100150009B020008550D00089B0200089B02000846
:100160009B0200089B0200089B0200089B020008FB
:100170009B0200089B0200089B0200080000000090
:100180009B0200089B0200089B0200089B020008DB
:100190009B0200089B0200089B0200089B020008CB
:1001A0009B0200089B0200089B020008DFF80CD0AD
:1001B00000F086FB004800470D2F020878CC022093
:1001C0002C4B19680868B0E8F04F80F30988BFF33A
:1001D0006F8F4FF0000080F311887047000000001F
:1001E00008480068006880F308884FF0000080F33A
:1001F000148862B661B6BFF34F8FBFF36F8F00DF15
:1002000000BF00BF08ED00E0DFF80C00016841F41A
:1002100070010160704700BF88ED00E0EFF30980D6
:10022000BFF36F8F134B1A681EF0100F08BF20ED3D
:10023000108A20E9F04F106009B44FF0500080F3AD
:100240001188BFF34F8FBFF36F8F27F03DFD4FF045
:10025000000080F3118809BC19680868B0E8F04F05
:100260001EF0100F08BFB0EC108A80F30988BFF3AE
:100270006F8F704738000220EFF305807047000051
:100280000648804706480047FEE7FEE7FEE7FEE730
:10029000FEE7FEE7FEE7FEE7FEE7FEE7098300086C
:1002A000AD0100082DE9F05F0546002092469B460F
:1002B00088460646814640241BE02846414647467C
:1002C000224600F02CFA53465A46C01A914110D3E8
:1002D00011461846224600F013FA2D1A67EB010862
:1002E0004F4622460120002100F00AFA17EB0009D0
:1002F0004E41201EA4F10104DFDC484631462A4667
:100300004346BDE8F09F40EA01039B0703D009E0A4
:1003100008C9121F08C0042AFAD203E011F8013BF1
:1003200000F8013B521EF9D27047D2B201E000F84A
:10033000012B491EFBD270470022F6E710B5134689
:100340000A4604461946FFF7F0FF204610BD10B5D7
:10035000044604E00B7800F8013B03B1491C521E2F
:10036000F8D2204610BD421C10F8011B0029FBD119
:10037000801A704710B5002200E0521C835C8C5C30
:10038000A34201D1002BF8D1D8B2E1B2401A10BD7E
:1003900030B504460020034600E05B1C934203D2C4
:1003A000E05CCD5C401BF8D030BD034611F8012B5A
:1003B00000F8012B002AF9D11846704730B50546E0
:1003C0000020034600E05B1C934205D2EC5CC85C55
:1003D000201A01D1002CF6D130BD2DE9FE4F804608
:1003E00081EA0300C00F0C46009021F0004123F089
:1003F0000045B8EB0200A94105D24046214690468F
:100400001C460B46024623F00040104347D0270D00
:10041000C7F30A00C3F30A510290401A0190402822
:100420006BDAC3F3130040F4801B0098924620B1AE
:100430000023D2EB030A63EB0B0B01985946C0F182
:100440004002504600F05CF906460D4650465946BB
:10045000019A00F074F910EB08006141002487EA6A
:10046000115284EAE7731A4340D0009A62B3019AAA
:10047000012A4FEA075215DC001B61EB02014FF025
:10048000004202EA0752CDE90042001C41F580110A
:1004900032462B4600F074F903B0BDE8F08F4046B9
:1004A0002146F9E7001B61EB0201001C41F58013B6
:1004B00000185B412018A2F5001747EB030140EA42
:1004C000D570B6196D4111E06D084FEA360645EA60
:1004D000C0754FEA0752001B61EB0201001C41F599
:1004E000801149084FEA30000019514132462B462D
:1004F00003B0BDE8F04F00F034B90098012240008D
:100500000023D0EB020263EBE073009821464FEA30
:10051000E074B8EB000061EB0401E9E783F000430D
:100520005BE781F0004158E72DE9FE4F81EA0304C3
:1005300004F0004421F0004100944FF0000B23F040
:10054000004350EA01045ED052EA03045BD0C3F3D7
:100550000A54C1F30A552C44A4F2F3340194A0FBCD
:100560000254C1F3130141F48011C3F3130343F4A4
:10057000801301FB024400FB034E840A970A44EAFD
:10058000815447EA8357A4FB076802958D0A05FB4F
:1005900007854FEA932C04FB0C542705029D4FEA74
:1005A000065847EA1637B5EB08056EEB070C870EC1
:1005B000920E47EA811742EA8312A7FB0201B6EBCB
:1005C0000B0164EB00042B0D43EA0C335E1844EB83
:1005D0001C50DA465146E7FB0201C5F313044FEA0B
:1005E0000B3343EA14534FEA0432019C43EA0603F7
:1005F000A4F10C040294009CCDE900B400F0C0F812
:1006000003B0BDE8F08F00200146F9E70EB5C10F39
:1006100080EAE0700844CA07002140F233438DE8C5
:100620000E000A460B4600F0ABF803B000BD0EB555
:1006300040F2334102910021CDE900110A460B46F8
:1006400000F09EF803B000BDC1F30A5210B5C1F32B
:10065000130140F2FF3341F480119A4201DA002085
:1006600010BD40F233439A42A2F2334203DC5242BD
:1006700000F055F810BD904010BD00F0004230F081
:1006800000400AD0C10D01F56071C0F3160042EAC6
:100690000151C208400711437047002001467047CE
:1006A00030B5041E71F1000404DB4FF000444042F9
:1006B00064EB0101141E73F1000405DB1C464FF0CE
:1006C0000043524263EB04038B4208BF824230BDB9
:1006D00030B5041E71F1000404DB4FF000444042C9
:1006E00064EB0101141E73F1000405DB1C464FF09E
:1006F0000043524263EB0403994208BF904230BD6D
:10070000202A04DB203A00FA02F1002070479140D1
:10071000C2F1200320FA03F3194390407047202AC6
:1007200004DB203A21FA02F00021704721FA02F39B
:10073000D040C2F120029140084319467047202A58
:1007400006DBCB17203A41FA02F043EAE07306E0F9
:1007500041FA02F3D040C2F1200291400843194609
:10076000704710B5141E73F1000408DA401C41F103
:10077000000192185B411A4301D120F0010010BD25
:100780002DE9F04D92469B4611B1B1FA81F202E09B
:10079000B0FA80F220329046FFF7B2FF04460F46CF
:1007A00040EA0A0041EA0B0153465A46084313D077
:1007B000114653EA010019D0C8F140025046FFF734
:1007C000AEFF05460E46504659464246FFF798FF93
:1007D000084305D0012004E020463946BDE8F08DED
:1007E0000020054346EAE0762C4337430A98630528
:1007F000E40AA0EB08000022FD0A44EA47540A304C
:1008000002D500200146E9E7010510196941DDE93B
:10081000084500196941BDE8F04DA2E72DE9F04D0A
:1008200000231A461B1A8A4103DB00200146BDE85B
:10083000F08DC1F30A52C1F3130141F480154FF05A
:10084000000BD10702D100186D41521E002704464B
:1008500040F2FF11384601EB620A3E4680460246EE
:1008600000204FF48011FFF75AFFC2197141BB18E5
:1008700046EB0100B4EB030C75EB000C04D3E41A57
:1008800065EB000517460E46241908F101006D417D
:1008900080463428E3DDF91946EB0600091BA84120
:1008A00003D24FF0FF32134601E0002213461BEB48
:1008B000070046EB0A51BDE8F04DFFF752BF0000BC
:1008C000064C074D06E0E06840F0010394E807009D
:1008D00098471034AC42F6D3FFF76CFC1CBE0308FB
:1008E0004CBE030870B58C1810F8015B15F00703B7
:1008F00001D110F8013B2A1106D110F8012B03E0B9
:1009000010F8016B01F8016B5B1EF9D12B0705D4C0
:100910000023521E0DD401F8013BFAE710F8013B09
:10092000CB1A921C03E013F8015B01F8015B521E25
:10093000F9D5A142D8D3002070BD000010B50446FF
:1009400012480078072800DB10BD1049097801EB38
:10095000C10202EB01120E4901EB42003221FFF706
:10096000EBFC0A49097801EBC10202EB01120849CC
:1009700001EB420031222146FFF7E9FC03480078F1
:10098000401C0249087000BFDEE70000240002207E
:10099000DC0702207047000010B500220121024848
:1009A000006823F015F910BDA800022010B5002240
:1009B00002210248006823F00BF910BDA8000220B4
:1009C00000BFFEE710B502200FF037FE10BD00009B
:1009D00010B500200E4908600E48006820F0C000E5
:1009E0000C4908600846006840F04000086000209C
:1009F0000949C1F88C02FFF7E5FF012004490860AE
:100A0000FFF7E0FF00200549C1F8980210BD000083
:100A1000988243420020024000004442008043424A
:100A200000B587B000BF002001901A48006840F070
:100A30008000184908600846006800F080000190B6
:100A400000BF00BF00BF002001900846006840F4CE
:100A5000807008600846006800F48070019000BF54
:100A600000BF4020029001200390049003200590D5
:100A700002A9094801F002FD0820029002A90748D6
:100A800001F0FCFC0120064908600649C1F8980203
:100A900007B000BD30380240001C02400020024078
:100AA0008C0244420080434210B500200E49086089
:100AB0000E48006820F0C0000C4908600846006835
:100AC00040F04000086001200949C1F88C02FFF79E
:100AD00079FF012004490860FFF774FF00200549F1
:100AE000C1F8980210BD00009882434200200240E5
:100AF000000044420080434270B505460024164879
:100B0000006820F0C00014490860084600680860CA
:100B10001E200FF092FD002613E000200F49086010
:100B2000FFF750FF01200E49C1F898026006040E3D
:100B30000C48006808B1601CC4B2FFF743FF701C8A
:100B4000C6B2082EE9DB15B9FFF7AEFF01E0FFF7EB
:100B50003FFF204670BD00000020024098824342C3
:100B6000008043420C02444270B5044613480068BA
:100B700020F0C000114908600846006840F04000BD
:100B8000086000200E490860002513E0E0090D49C7
:100B900008606006040EFFF715FF01200A49C1F83E
:100BA0009802FFF70FFF002005490860FFF70AFFD2
:100BB000681CC5B2082DE9DB70BD000000200240B2
:100BC000988243428C0244420080434210B50F4851
:100BD000006820F0C0000D4908600846006840F039
:100BE0004000086001200A4908600A49C1F89802DB
:100BF0001E200FF022FD002005490860FFF7E2FEED
:100C000000200449C1F8980210BD000000200240F5
:100C10008C0244420080434210B50F48006820F027
:100C2000C0000D4908600846006840F040000860B8
:100C300000200A4908600A49C1F88C021E200FF002
:100C4000FCFC012005490860FFF7BCFE01200449B7
:100C5000C1F88C0210BD000000200240988243427F
:100C60000000444210B500241248006820F0C00083
:100C70001049086008460068086001200E490860B5
:100C80000E49C1F89802FFF79DFE09E0601CC4B24E
:100C9000FA2C03DDFFF7C0FF012010BDFFF792FE25
:100CA0000548803800680028F0D10549086000BF79
:100CB000F3E70000002002408C02444200804342DF
:100CC0009882434210B527F033F91249086008466C
:100CD0000068B0F5805F0BD240F6B83022F067FFB5
:100CE0000C48406920F00400001D0A49486110E0EA
:100CF00008480068B0F5A05F0BD806480068B0F55A
:100D0000805F06D30348406920F00300401C01497E
:100D1000486110BDB807022010B50021044A1160D7
:100D20005160592140F2E73006F0BCFB10BD0000D5
:100D30004001022010B5024801F048F910BD000042
:100D40003015022010B5024801F040F910BD000036
:100D50007014022010B5024801F038F910BD0000EF
:100D6000D01402200146087810381823B0FBF3F2A3
:100D70000848805CC865032A05D908686FF3090034
:100D8000001D886503E008686FF309008865886DB9
:100D900070470000DC8C0208014600208A6A8B69DB
:100DA000CBB932B1012A0DD0022A03D0032A10D1C7
:100DB0000EE000BFCB6A03F08073B3F1807F00D1F7
:100DC000012007E0CB6AB3F1C07F00D1012001E030
:100DD00000E000BF34E08B69B3F5005F1AD132B197
:100DE000012A07D0022A03D0032A11D10AE000BF4A
:100DF00001200EE0CB6A03F08073B3F1807F00D155
:100E0000012006E0CB6AB3F1C07F00D1012000E0F1
:100E100000BF15E032B1012A05D0022A04D0032A0E
:100E20000CD103E000BF00BF012008E0CB6A03F053
:100E30008073B3F1807F00D1012000E000BF00BFCC
:100E4000704730B50468246824F4802405682C6059
:100E5000046863608468402C04D10468A26004685C
:100E6000E16003E00468A1600468E26030BD000056
:100E700008B500BF002000901E48006840F48000C4
:100E80001C4908600846006800F48000009000BF1C
:100E900000BF4FF0007018494860802116488160FB
:100EA0000021C16001614FF400518161416109017C
:100EB00001620021C161042141620321816200219C
:100EC0000163C1620D480C490860084601F09EF9B3
:100ED00000B108BD0A480849C8630A48C86403222B
:100EE0001146382001F0D2FC382001F0BFFC00BFD1
:100EF000EFE7000030380240301502201064024055
:100F000081060108F1060108704710B5012001F0C3
:100F1000A7FA10BD72B600BFFEE7000008B5124880
:100F2000006900B908BD4FF47A7022F0EDFB00B9FA
:100F3000F8E70D48406810B903F0C6F9F2E7012060
:100F4000094A00905168012310691A4626F024FFCF
:100F500005498860084640688968884201D103F0E5
:100F6000B3F900BFDEE70000B807022070B5044601
:100F70001D460023B5F5804F13D154F822300C489C
:100F80000340D1E9000640EA06108E6840EA0620D8
:100F90008E8940EA06408E693043034344F822308C
:100FA00003E06FF0704044F82200002070BD0000A4
:100FB0000000F0CF10B502460023086852F8203038
:100FC00018480340D1E901042043CC6820430C6950
:100FD00020434C6920438C692043CC6920430C6A30
:100FE00020434C6A20438C6A2043CC6A2043CC6B5C
:100FF00020430C6B20434C6B204303438868082834
:1010000001D143F04003086842F82030486BB0F546
:10101000801F05D1086818B110684C6B2043106020
:10102000002010BD8000E0FF30B5034614460022CA
:10103000601C53F8202002F04042D1E9000540EA4C
:1010400005108D6840EA05208D8940EA0545088A2B
:10105000401E45EA0055087D801E45EA00608D6906
:1010600028430243601C43F82020186800F48010D5
:10107000B0F5801F07D1586820F47002088A401E1E
:1010800042EA00525A60002030BD30B502460023CB
:1010900000240868012816D013686FF30E03D1E905
:1010A00001052843CD6828430D6928434D6928432D
:1010B0008D692843CD6928430D6A28434D6A28432A
:1010C0000343136019E0136823F4F843D1E90705DB
:1010D00028434D6A2843034354686FF30E04D1E953
:1010E00001052843CD6828430D6928434D692843ED
:1010F0008D692843044313605460002030BD0246CC
:10110000506940EA4100506100207047F8B506463A
:101110000C461546002000900027D4E90001084342
:10112000A168491E40EA4110E16840EA4120009070
:101130000098306101F0BEFA074609E0681C38B13A
:1011400025B101F0B7FAC01BA84201D90320F8BDB0
:10115000B06900F020002028F0D00020F7E7000060
:1011600070B50346154600220024012D1FD09A6851
:1011700002F070420868401E4E68761E40EA06166D
:101180008868401E46EA0026C868401E46EA0036C7
:10119000088A401E46EA0046888A401E46EA0056F3
:1011A000087E401E46EA006002439A6022E09A6888
:1011B00011480240C868401E0603888A401E46EA5D
:1011C00000500243DC6804F070440868401E4E681A
:1011D000761E40EA06168868401E46EA0026088AFF
:1011E000401E46EA0046087E401E46EA0060044370
:1011F0009A60DC60002070BDFF0F0FFF00B587B064
:1012000000BF002000903B48006840F08000394952
:1012100008600846006800F08000009000BF00BF32
:1012200000BF002000900846006840F4807008600D
:101230000846006800F48070009000BF00BF802066
:10124000019000200290012003900320049001A946
:10125000294801F013F94FF48070019001200290A9
:1012600001A9264801F00AF9FFF7DAFB002024491A
:10127000086014200FF0D5F901202249C1F8A0021E
:1012800032200FF0CEF900208DF81800012206A9B7
:1012900000F034F9012206A9A42000F02FF916204D
:1012A0008DF81800012206A9802000F027F90C20F3
:1012B0008DF81800012206A9882000F01FF90222EB
:1012C00006A9A12000F020F89DF81800302803D1CD
:1012D0009DF81900032807D09DF81900012803D0B4
:1012E0009DF81900022802D1002007B000BD01209E
:1012F000FBE7000030380240001C024000200240A2
:10130000A0024442000044422DE9F04106460F4647
:101310001546FFF75BFC7020FFF726FCFFF7A2FCE9
:10132000F0B2FFF721FCFFF79DFCFFF74FFC7120A7
:10133000FFF71AFCFFF796FC00240BE0691EA142A0
:1013400001D0012100E000210846FFF7D5FB385508
:10135000601CC4B2AC42F1DBFFF75EFCBDE8F0817B
:1013600071B581B00024002660480078401C5F49B8
:101370000870084600780A2190FBF1F201FB120088
:1013800018B15A4800780A287EDA012201A9022001
:10139000FFF7BAFF9DF8040000F00F0000287ED090
:1013A0009DF8040000F00F00062878DA9DF804008C
:1013B00000F00F01FF208840C5B2E84380B240F042
:1013C000C0004B498886002459E04948808E01219D
:1013D000A1400840F0B3474931F81400042269469F
:1013E000FFF792FF424890F8440000F00100C0B1BE
:1013F0009DF801009DF8001001F00F0100EB0121A4
:101400003B48203020F814109DF803009DF802108E
:1014100001F00F0100EB012035490C3121F81400D7
:101420001DE09DF801009DF8001001F00F0100EB98
:10143000012031490988081A81B22D480C3020F862
:1014400014109DF803009DF8021001F00F0100EB4D
:10145000012000E011E02649203121F814009DF818
:10146000000000F0F000802807D000212048203044
:1014700020F81410143820F81410601CC4B2052C85
:10148000A3DB01261A4800E009E0808920B918484A
:10149000008C08B9002001900020144908709DF8C4
:1014A000040000F01F00B8B9114890F8340000F0B3
:1014B000800030B10E48808E20F080000C49888674
:1014C0000AE04FF6FF700A4988810884084690F8C0
:1014D000340000F0E000888604480078F02802DD3F
:1014E0000A200249087030467CBD0000AD01022090
:1014F000600102204ED60208EC1202202DE9F041D4
:1015000005460E4617464FF00008FFF75FFB7020B8
:10151000FFF72AFBFFF7A6FBE8B2FFF725FBFFF773
:10152000A1FB00240BE0305DFFF71EFBFFF79AFBE9
:101530008046B8F1000F00D003E0601CC4B2BC428A
:10154000F1DB00BFFFF768FB4046BDE8F08100001B
:1015500000B589B000BF002001904448006840F009
:101560008000424908600846006800F08000019051
:1015700000BF00BF00BF002001900846006840F493
:10158000807008600846006800F48070019000BF19
:1015900000BF8020029000200390012004900320CF
:1015A000059002A9324800F069FF4FF48070029064
:1015B0000120039002A92F4800F060FFFFF730FAE6
:1015C00000202D4908600A200FF02BF801202B493C
:1015D000C1F8A0020A200FF024F880200290002019
:1015E000039004900320059002A9214800F046FFD3
:1015F00064200FF016F8042207A948F2401000F00A
:1016000045F800208DF820001DA107A8FEF7B2FEC6
:1016100050BB02208DF81C00012207A948F24000AF
:1016200000F00CFA012207A948F2470000F02EF85A
:101630009DF81C00602808DA1348808845F2105194
:10164000884202D1012000F0CBF90A200EF0E9FF18
:1016500000208DF81C00012207A948F2400000F08C
:10166000EDF9002009B000BD0120FBE73038024051
:10167000001C024000200240A002444200004442FC
:101680003931343700000000EC1202202DE9F0411E
:1016900005460F461646FFF799FA2820FFF764FA29
:1016A000FFF7E0FA2812FFF75FFAFFF7DBFAE8B27C
:1016B000FFF75AFAFFF7D6FAFFF788FA2920FFF763
:1016C00053FAFFF7CFFA00240BE0711EA14201D0BC
:1016D000012100E000210846FFF70EFA3855601C92
:1016E000C4B2B442F1DBFFF797FABDE8F081000025
:1016F00071B583B000240026B5480078401CB44979
:101700000870084600780A2190FBF1F201FB1200F4
:1017100018B1AF4800780A2871DA012203A948F20B
:101720004E10FFF7B3FF9DF80C0000F0800068B189
:101730009DF80C0000F00F00062807DA0020019049
:10174000012201A948F24E1000F078F99DF80C0032
:1017500000F00F00002852D09DF80C0000F00F00A0
:101760000628D9DA9DF80C0000F00F01FF20884010
:10177000C0B20190974890F834509DF80400C043DF
:1017800080B240F0C00093498886084681898182F2
:10179000018C01850024C3E08E48808E0121A14088
:1017A000084000282AD08C4931F81400042202A9EC
:1017B000FFF76CFF8948808845F21051884236D186
:1017C000844890F8440000F00100C8B19DF808007A
:1017D0009DF8091000EB012081B27E48203020F8EE
:1017E00014109DF80A009DF80B1000EB0120C0F5C5
:1017F000487081B277480C3020F814108EE0BFE0BA
:101800009DF808009DF8091000EB012081B2714895
:101810000C3020F814109DF80A009DF80B1000EB16
:10182000012081B26B48203020F8141076E06B481C
:10183000808844F24231884235D1664890F84400AD
:1018400000F00100B0B19DF808009DF8091000EB10
:10185000012081B25F480C3020F814109DF80A0076
:101860009DF80B1000EB012081B25A48203020F87F
:10187000141053E09DF808009DF8091000EB0120BA
:1018800081B25448203020F814109DF80A009DF8C9
:101890000B1000EB0120C0F5887081B24D480C3070
:1018A00020F814103AE04D48808844F28431884290
:1018B00034D1484890F8440000F00100B0B19DF8E0
:1018C00008009DF8091000EB012081B241480C305E
:1018D00020F814109DF80A009DF80B1000EB012071
:1018E00081B23C48203020F8141017E09DF8080021
:1018F0009DF8091000EB012081B23648203020F815
:1019000014109DF80A009DF80B1000EB0120C0F5A3
:10191000F07081B22F480C3020F81410601CC4B253
:10192000052CFFF639AF01262A4880892B49098802
:10193000884205DC2748008C2849498888421CDDFC
:101940009DF80C0000F00F0001280ADD2148C08935
:10195000204988810846408C088400201C49087072
:101960000EE01C48808A1B4988810846008D088447
:10197000802003900846858602E000201449087004
:101980009DF80C0000F08F00802817D1114890F8C6
:10199000340000F0800030B10E48808E20F08000CE
:1019A0000C4988860AE04FF6FF700A49888108844E
:1019B000084690F8340000F0E0008886044800787B
:1019C000F02802DD0A2002490870304604B070BDDC
:1019D000AC0102206001022044D60208EC12022071
:1019E00038B50546002400208DF800008DF8015020
:1019F00000BF09E09DF800000F49095D0844C0B22E
:101A00008DF80000601CC4B2B82CF3D39DF8000020
:101A1000C043401CC0B28DF80000B822064948F20D
:101A2000470000F00BF80222694648F2FF0000F080
:101A300005F8002038BD00008CD502082DE9F041E2
:101A400004460E4617464FF00008FFF7BFF828205F
:101A5000FFF78AF8FFF706F92012FFF785F8FFF77E
:101A600001F9E0B2FFF780F8FFF7FCF800250BE082
:101A7000705DFFF779F8FFF7F5F88046B8F1000FD1
:101A800000D003E0681CC5B2BD42F1DB00BFFFF728
:101A9000C3F84046BDE8F08100B589B000BF002022
:101AA00001904348006840F08000414908600846C2
:101AB000006800F08000019000BF00BF00BF002060
:101AC00001900846006840F480700860084600688D
:101AD00000F48070019000BF00BF802002900020C1
:101AE0000390012004900320059002A9314800F0E2
:101AF000C5FC4FF4807002900120039002A92E488B
:101B000000F0BCFCFEF78CFF00224FF480712A48E5
:101B100000F0CAFD0A200EF084FD012211022648C1
:101B200000F0C2FD0A200EF07CFD80200290002013
:101B3000039004900320059002A91E4800F09EFC2B
:101B400064200EF06EFD042207A948F2401000F058
:101B500039F800208DF8200018A107A8FEF70AFC2C
:101B600020BB02208DF81C00012207A948F240008A
:101B7000FFF764FF012207A948F24700FFF786FD3F
:101B80009DF81C00412802DA012000F055F90A20D6
:101B90000EF047FD00208DF81C00012207A948F235
:101BA0004000FFF74BFF002009B000BD0120FBE71C
:101BB00030380240001C02400020024039323731E8
:101BC000000000002DE9F04105460F461646FEF7DD
:101BD000FDFF2820FEF7C8FFFFF744F82812FEF7A4
:101BE000C3FFFFF73FF8E8B2FEF7BEFFFFF73AF892
:101BF000FEF7ECFF2920FEF7B7FFFFF733F80024CC
:101C00000BE0711EA14201D0012100E00021084635
:101C1000FEF772FF3855601CC4B2B442F1DBFEF728
:101C2000FBFFBDE8F081000071B583B0002001909A
:101C300000267D480078401C7B49087008460078E3
:101C40000A2190FBF1F201FB120018B176480078EE
:101C50000A286EDA012203A948F24E10FFF7B2FFFC
:101C60009DF80C0000F0800068B19DF80C0000F0B9
:101C70000F000B2807DA00200190012201A948F289
:101C80004E1000F007F99DF80C0000F00F0000283E
:101C90004FD09DF80C0000F00F000B28D9DA9DF80A
:101CA0000C0000F00F014FF6FF70884084B25F48CF
:101CB000858EE04380B240F0C0005C4988860846CB
:101CC0008189C183018C41860020019053E05748EF
:101CD000808E9DF8042001219140084040B3544972
:101CE0009DF8042031F81200062202A9FFF76AFFCE
:101CF0004E4890F8440000F00100D8B19DF80A0069
:101D00009DF80B1000EB012081B2484820309DF86F
:101D1000042020F812109DF808009DF8091000EB2F
:101D2000012081B241480C309DF8042020F81210A7
:101D30001CE051E09DF80A009DF80B1000EB01201B
:101D4000C0F5487081B239480C309DF8042020F865
:101D500012109DF808009DF8091000EB012081B2D7
:101D6000324820309DF8042020F812109DF804001D
:101D7000401CC0B201909DF804000A28A7DB012690
:101D80002A4880892B490988884205DC2748008C2D
:101D90002849498888421CDD9DF80C0000F00F009E
:101DA00001280ADD2148C089204988810846408CE5
:101DB000088400201C4908700EE01C48C08B1B4999
:101DC00088810846408E08848020039008468586D6
:101DD00002E00020144908709DF80C0000F08F000C
:101DE000802816D1114890F8340000F0800030B1FE
:101DF0000E48808E20F080000C49888609E04FF65E
:101E0000FF700A49888108840846808E00F460408B
:101E1000888605480078F02802DD0A20024908700B
:101E2000304604B070BD0000AB010220600102200A
:101E300078D50208EC12022038B5054600240020AF
:101E40008DF800008DF8015000BF09E09DF80000FA
:101E50000F49095D0844C0B28DF80000601CC4B28F
:101E6000B82CF3D39DF80000C043401CC0B28DF8DD
:101E70000000BA22064948F2470000F00BF802229F
:101E8000694648F2FF0000F005F8002038BD000068
:101E9000BED402082DE9F04104460E4617464FF025
:101EA0000008FEF793FE2820FEF75EFEFEF7DAFE3E
:101EB0002012FEF759FEFEF7D5FEE0B2FEF754FE03
:101EC000FEF7D0FE00250BE0705DFEF74DFEFEF73D
:101ED000C9FE8046B8F1000F00D003E0681CC5B20F
:101EE000BD42F1DB00BFFEF797FE4046BDE8F08142
:101EF00038B5002500200090002425F08BFB054616
:101F000027488069A84238D0002025494860084603
:101F10008561C06928B1C86925F08AFC0020204984
:101F2000C8611F48806900EBC0008400204622F091
:101F30000BFB1B49C8610846C06918B1C869214636
:101F4000FEF7FAF91648006A30B11549086A25F01B
:101F50006FFC00201249086211488069C0EBC00084
:101F6000C400204622F0F0FA0D4908620846006AD3
:101F700018B1086A2146FEF7DFF90948C06900B9BF
:101F800038BD074A9169D0696A4625F05DFB054670
:101F900000F090FB0249C1F8840100BFF0E70000A7
:101FA000B8070220014691F83500022803D08020AE
:101FB000486501207047052081F8350008680068F1
:101FC00020F001000A6810600020F3E7F8B504462D
:101FD000002000908C4800684FF41651B0FBF1F7D8
:101FE000A56D2E6894F85C1008208840304098B1A8
:101FF0002068006800F0040070B12068006820F0DC
:1020000004002168086094F85C1008208840A860EB
:10201000606D40F00100606594F85C10012088401C
:10202000304068B12068406900F0800040B194F809
:102030005C1001208840A860606D40F0020060657F
:1020400094F85C1004208840304068B12068006833
:1020500000F0020040B194F85C1004208840A860B1
:10206000606D40F00400606594F85C1010208840BA
:10207000304078B32068006800F0080050B394F84E
:102080005C1010208840A8602068006800F4802060
:1020900080B12068006800F4002028B9206CC8B125
:1020A0002046216C884715E0A06C98B12046A16CB1
:1020B00088470FE02068006800F4807028B9206825
:1020C000006820F0080021680860206C10B12046EC
:1020D000216C884794F85C1020208840304000280C
:1020E00065D02068006800F0100000285FD094F8E8
:1020F0005C1020208840A86094F83500052828D17D
:102100002068006820F01600216808602068406997
:1021100020F0800021684861206C08B9A06C28B1CB
:102120002068006820F008002168086094F85C10BE
:102130003F208840A86000BF002084F8340000BF22
:10214000012084F83500206D10B12046216D8847AC
:10215000F8BD2068006800F4802080B12068006825
:1021600000F4002028B9606C10B12046616C8847EB
:102170001DE0E06BD8B12046E16B884717E020688E
:10218000006800F4807068B92068006820F01000D2
:102190002168086000BF002084F8340000BF0120DF
:1021A00084F83500E06B10B12046E16B8847606D24
:1021B00038B3606D00F00100F0B1052084F83500FF
:1021C0002068006820F001002168086000BF0098C6
:1021D000401C0090B84200D905E02068006800F07B
:1021E00001000028F3D100BF00BF002084F83400B4
:1021F00000BF012084F83500E06C10B12046E16C8E
:10220000884700BFA4E70000340002202DE9F04118
:102210000446002500F04EFA074614B90120BDE837
:10222000F081606A00B100BF00BF002084F8340074
:1022300000BF022084F835002068006820F001000B
:10224000216808600AE000F035FAC01B052805D9AE
:1022500020206065032084F83500E0E720680068EE
:1022600000F001000028EED12068056821480540F3
:10227000D4E901010843E168084321690843616921
:102280000843A1690843E1690843216A08430543FB
:10229000606A042803D1D4E90B0108430543206890
:1022A00005602068456925F00705606A0543606A96
:1022B00004280DD1A06A0543E06A48B12046FEF724
:1022C0006BFD28B140206065012084F83500A6E749
:1022D000206845612046FEF745FD064694F85C10EF
:1022E0003F208840B06000206065012084F8350000
:1022F000002094E73F8010F02DE9F04704460D469A
:1023000016461F464FF00008D4F8589000BF94F8C6
:102310003400012802D10220BDE8F087012084F8B2
:10232000340000BF94F83500012825D1022084F83C
:102330003500002060653B46324629462046FEF7C0
:1023400080FD94F85C103F208840C9F808002068A0
:10235000006840F0160021680860206C28B12068F1
:10236000006840F00800216808602068006840F0BC
:1023700001002168086006E000BF002084F83400F6
:1023800000BF4FF002084046C6E7000000B587B026
:10239000142102A8FDF7D0FF2348006808B107B058
:1023A00000BD01202049086000BF002001901F48A7
:1023B000006840F001001D4908600846006800F010
:1023C0000100019000BF00BF4FF680700290022014
:1023D000039000200490032005900C20069002A991
:1023E000134800F04BF84EF2B370029002200390B5
:1023F00000200490032005900C20069002A90D48AF
:1024000000F03CF84FF4805002900220039000202E
:102410000490032005900C20069002A9064800F0C5
:102420002DF800BFBBE70000480102203838024009
:1024300000100240000C02400018024010B5044693
:10244000012C0BD114F03EF810B1012804D102E0A8
:1024500023F0ACF901E000E000BF00BF10BD0000B8
:1024600010B5044604480068204020B102480460CA
:102470002046FFF7E3FF10BD143C0140F8B50246CB
:102480000B460025002400200021E6E0012606FA84
:1024900001F51E6806EA0504AC4273D15E68012EA0
:1024A00008D05E68022E05D05E68112E02D05E68EC
:1024B000122E13D190684F000326BE40B0434F0048
:1024C000DE68BE4030439060506801268E40B043C5
:1024D0001E79C6F300168E4030435060D0684F001E
:1024E0000326BE40B0434F009E68BE403043D060DC
:1024F0005E68022E02D05E68122E13D1CF0802F160
:10250000200656F827004E07F70E0F26BE40B043B0
:102510004F07FF0E1E69BE403043CF0802F1200670
:1025200046F8270010684F000326BE40B0431E79CE
:1025300006F003064F00BE40304310605E6806F0B0
:102540008056B6F1805FA8D100BF00260096454EA8
:10255000366846F48046434F3E603E46366806F491
:102560008046009600BF00BF3F4E8F0856F82700F8
:102570008E07370F0F26BE40B0433C4EB24202D109
:1025800000262EE068E03A4EB24201D1012628E052
:10259000384EB24201D1022623E0374EB24201D179
:1025A00003261EE0354EB24201D1042619E0344E16
:1025B000B24201D1052614E0324EB24201D10626C4
:1025C0000FE0314EB24201D107260AE02F4EB2424F
:1025D00001D1082605E02E4EB24201D1092600E0C5
:1025E0000A268F073F0FBE4030431F4E8F0846F824
:1025F0002700284E3068A0435E6806F48036B6F5A2
:10260000803F00D12043234E3060361D3068A04308
:102610005E6806F40036B6F5003F00D120431D4E3B
:10262000361D3060361D3068A0435E6806F48016A3
:10263000B6F5801F00D12043164E08363060361D97
:102640003068A0435E6806F40016B6F5001F00D19E
:102650002043104E0C363060491C1029FFF416AF91
:10266000F8BD000044380240083801400000024034
:102670000004024000080240000C0240001002402A
:102680000014024000180240001C024000200240DA
:1026900000240240003C0140024613690B400BB18C
:1026A000012000E0002070470AB1816101E00B04C5
:1026B00083617047014800687047000028000220CD
:1026C00010B504460CB9012010BD94F8390028B9A2
:1026D000002084F83800204601F0B0FD242084F862
:1026E00039002068C06820F400502168C860204686
:1026F00006F0E2FE2068006920F49040216808613D
:102700002068406920F02200216848612068406903
:1027100040F00800216848612068C06840F400501B
:102720002168C8600020E063202084F8390084F824
:102730003A000020C8E70000034800680349097810
:102740000844014908607047280002203000022038
:1027500010B50D48006840F400700B490860084649
:10276000006840F4806008600846006840F48070AB
:102770000860032000F0C8F8002000F007F800F01F
:102780004BF8002010BD0000003C024070B588B03E
:10279000044600250026002221461E2000F076F87F
:1027A0001E2000F063F800BF00200190164800686A
:1027B00040F00400144908600846006800F0040076
:1027C000019000BF00BF02A903A800F07FFB00F04A
:1027D000A5FB45000D48B5FBF0F0461E0C480D4921
:1027E000086040F2E7310B48C1604660002101619A
:1027F000816001F065FB20B9064801F09FFB08B03D
:1028000070BD0120FBE700004038024040420F004D
:10281000000800406C07022008B500BF00200090AF
:102820001148006840F480400F490860084600687D
:1028300000F48040009000BF00BF00BF0020009067
:10284000081F006840F08050091F086008460068B3
:1028500000F08050009000BF00BF00220F21901EAA
:1028600000F014F808BD0000443802400146084654
:10287000002809DB00F01F0301229A4043099B0056
:1028800003F1E023C3F8002100BF70472DE9F05F9A
:1028900080460D461646002707F014F807463946CD
:1028A0002A46334601F00700C0F1070ABAF1040FC7
:1028B00002D94FF0040A01E0C0F1070AD14600F145
:1028C000040ABAF1070F02D24FF0000A01E0A0F1AA
:1028D000030AD4464FF0010A0AFA09FAAAF1010ADA
:1028E0000AEA020A0AFA0CFA4FF0010B0BFA0CFB87
:1028F000ABF1010B0BEA030B4AEA0B0421464046FD
:1029000006F0E8FFBDE8F09F00BF00F00702064BAD
:1029100019684FF6FF031940044B0B4343EA0221A9
:10292000014B196000BF70470CED00E00000FA0594
:1029300000BF00BF00BF00BF00BFBFF34F8F00BF8D
:1029400000BF00BF0948006800F4E0600849084380
:10295000001D0649086000BF00BF00BFBFF34F8FD6
:1029600000BF00BF00BF00BF00BFFDE70CED00E0EF
:102970000000FA0538B5002400BF002000901D4873
:10298000006840F080501B4908600846006800F06D
:102990008050009000BF00BF012017490864FFF776
:1029A00089FE044607E0FFF785FE001BB0F57A7F3D
:1029B00001D9032038BD1148406800F48030B0F5DB
:1029C000803FF0D101200C494864FFF773FE0446B4
:1029D00007E0FFF76FFE001BB0F57A7F01D90320F7
:1029E000E8E70648406800F40030B0F5003FF0D159
:1029F0000020DFE74038024000000E420070004037
:102A0000012001490862704700000E4202494968EE
:102A10000143014A51607047007000400748006858
:102A200040F00200054908600548006840F00400D5
:102A30000349086000BF00BF30BF7047007000400E
:102A400010ED00E0F8B5044600250026207800F0DF
:102A5000010048B9207800F00200022804D0207854
:102A600000F04000402862D10020B1498866FFF79D
:102A700021FE054606E0FFF71DFE401B022801D996
:102A80000320F8BDAB480068C0F3C0600028F2D155
:102A9000207800F0010038B160688101207A41EAB5
:102AA0000070A44984310860207800F002000228F8
:102AB00019D1A04884300068C0F3027660688101B3
:102AC000207B41EA006040EA06709A498431086040
:102AD00098488C30006820F01F00E169491E0843C7
:102AE00094498C310860207800F0400040280AD1D9
:102AF00060688101207B41EA0061207A41EA007030
:102B00008C4984310860012089498866FFF7D2FD2D
:102B1000054606E0FFF7CEFD401B022801D9032041
:102B2000AFE784480068C0F3C0600028F2D0207886
:102B300000F00400042804D0207800F008000828E1
:102B400063D100207A490867FFF7B4FD054606E027
:102B5000FFF7B0FD401B022801D9032091E775481B
:102B60000068C0F340700028F2D1207800F0040023
:102B7000042819D16F4888300068C0F302762069B4
:102B80008101207D41EA006040EA06706949883190
:102B90000860081D006820F4F851206A401E41EAD0
:102BA000002064498C310860207800F00800082873
:102BB00017D1604888300068C0F30366206980013F
:102BC00040EA0661207E41EA00705A498831086077
:102BD000081D006820F44030616A084355498C3173
:102BE0000860012052490867FFF764FD054606E0CA
:102BF000FFF760FD401B022801D9032041E74D4843
:102C00000068C0F340700028F2D0207800F0200067
:102C100020287DD100BF0020009046484030006849
:102C200040F080504349403108600846006800F099
:102C30008050009000BF00BF3F48006840F48070A3
:102C40003D490860FFF736FD054606E0FFF732FD17
:102C5000401B022801D9032013E73748006800F41D
:102C600080700028F2D033487030006800F440765D
:102C70004EB3208D00F44070B04224D02D48703007
:102C8000006820F4407601202C490860002008608C
:102C9000284870300660006800F0010098B1FFF726
:102CA00009FD054608E0FFF705FD401B41F28831AC
:102CB000884201D90320E4E61E4870300068C0F362
:102CC00040000028EFD000BF208D00F44070B0F528
:102CD000407F0CD117480830006820F4F810184ADB
:102CE000A16A1140084313490831086007E0114800
:102CF0000830006820F4F8100E49083108600D48CB
:102D000070300068218DC1F30B010843094900E0D0
:102D100002E07031086000BF207800F01000102839
:102D200003D194F82C00074908600020A9E60000B0
:102D3000000047420038024000700040400E474209
:102D4000FFFCFF0FE011474270B504460D460CB979
:102D5000012070BD5848006800F00F00A84209D259
:102D600055490D700846006800F00F00A84201D0D8
:102D70000120EEE7207800F0020002281DD1207823
:102D800000F00400042805D14C48006840F4E050ED
:102D90004A490860207800F00800082805D1474813
:102DA000006840F46040454908604448006820F0ED
:102DB000F000A168084341490860207800F0010054
:102DC000A8B36068012807D13C4808380068C0F300
:102DD0004040B8B90120BCE76068022802D06068B2
:102DE000032807D1354808380068C0F3406048B967
:102DF0000120AEE7314808380068C0F3400008B948
:102E00000120A6E72D48006820F003006168084310
:102E10002A490860FFF74EFC064609E0FFF74AFC26
:102E2000801B41F28831884202D9032091E707E0F4
:102E30002248006800F00C006168B0EB810FEDD112
:102E40001D48006800F00F00A84209D91A490D700A
:102E50000846006800F00F00A84201D0012078E782
:102E6000207800F00400042807D11448006820F4FA
:102E7000E050E168084311490860207800F008003C
:102E8000082808D10D48006820F46040216940EA14
:102E9000C1000A49086000F061F808490968C1F3F7
:102EA0000311074A515CC84006490860064800689B
:102EB000FFF76CFC00204CE7003C02400838024061
:102EC000E48C0208340002202C0002200F22026051
:102ED0000D4A126802F0030242600B4A126802F0C7
:102EE000F0028260084A126802F4E052C260064AA8
:102EF000126802F46042D2080261044A126802F0C9
:102F00000F020A607047000008380240003C02408F
:102F100001480068704700003400022000B5FFF748
:102F2000F7FF04490968C1F38221034A515CC84094
:102F300000BD000008380240F48C020800B5FFF71D
:102F4000E7FF04490968C1F34231034A515CC840B4
:102F500000BD000008380240F48C02082DE9F0475B
:102F6000002400250026A1462548006800F00C003A
:102F700020B1042805D008283AD105E0DFF8849074
:102F800039E0DFF8849036E01D48001F006800F04B
:102F90003F041B48001F006800F4800078B11A4805
:102FA0001749091F0968C1F38811A0FB0170014688
:102FB000224600233846FDF775F905460EE0114814
:102FC0000F49091F0968C1F38811A0FB0170014670
:102FD000224600233846FDF765F905460848001FDC
:102FE0000068C0F30140401C4600B5FBF6F902E062
:102FF000DFF8109000BF00BF4846BDE8F087000032
:10300000083802400024F40040787D01F8B50446F9
:103010000CB90120F8BD207800F00100002874D020
:10302000F948006800F00C0004280DD0F64800684C
:1030300000F00C00082813D1F348001F006800F4CA
:103040008000B0F5800F0BD1EF4808380068C0F35E
:103050004040002859D06068002856D10120D9E7A7
:1030600000BF6068B0F5803F08D1E74808380068C5
:1030700040F48030E449083908601EE06068B0F52B
:10308000A02F0DD1E0480838006840F48020DE49C8
:10309000083908600846006840F4803008600CE099
:1030A000D9480838006820F48030D74908390860CA
:1030B0000846006820F48020086000BF606890B176
:1030C000FFF7F8FA054606E0FFF7F4FA401B64281C
:1030D00001D903209EE7CC4808380068C0F340407F
:1030E0000028F1D011E0FFF7E5FA054606E0FFF70A
:1030F000E1FA401B642801D903208BE7C248083855
:103100000068C0F340400028F1D1207800F00200B0
:1031100002285FD1BC48006800F00C0058B1BA48E2
:10312000006800F00C0008281CD1B748001F006898
:1031300000F48000B0B9B44808380068C0F340001B
:1031400020B1E068012801D0012063E7AE480838CB
:10315000006820F0F800216940EAC100AA49083956
:10316000086037E0E06800B30120A8490860FFF775
:10317000A1FA054606E0FFF79DFA401B022801D997
:10318000032047E7A04808380068C0F34000002843
:10319000F1D09D480838006820F0F800216940EA25
:1031A000C10099490839086014E000209749086077
:1031B000FFF780FA054606E0FFF77CFA401B02287D
:1031C00001D9032026E7904808380068C0F3400082
:1031D0000028F1D1207800F0080008282CD160697F
:1031E000A8B101208A490860FFF764FA054606E0A5
:1031F000FFF760FA401B022801D903200AE7824842
:103200006C300068C0F340000028F1D014E00020CA
:103210007F490860FFF74EFA054606E0FFF74AFAD5
:10322000401B022801D90320F4E677486C3000687F
:10323000C0F340000028F1D1207800F004000428F9
:1032400070D1002770483830006800F0805090B985
:1032500000BF002000906C483830006840F080507B
:103260006949383108600846006800F080500090D5
:1032700000BF00BF01276748006800F48070B0B944
:103280006448006840F4807062490860FFF712FAF1
:10329000054606E0FFF70EFA401B022801D903207D
:1032A000B8E65C48006800F480700028F2D000BFE7
:1032B000A068012808D154486830006840F0010037
:1032C0005149683108601DE0A06805280DD14E48BD
:1032D0006830006840F004004B49683108600846D7
:1032E000006840F0010008600CE047486830006862
:1032F00020F001004449683108600846006820F069
:103300000400086000BFA068A8B1FFF7D3F9054624
:1033100009E0FFF7CFF9401B41F28831884202D91A
:10332000032077E626E0384868300068C0F34000A4
:103330000028EED013E0FFF7BDF9054608E0FFF7DF
:10334000B9F9401B41F28831884201D9032061E676
:103350002D4868300068C0F340000028EFD1012FED
:1033600007D129483830006820F08050264938318C
:10337000086000BFA069002845D02348006800F01D
:103380000C0008285DD0A069022845D100201F4903
:103390000866FFF78FF9054606E0FFF78BF9401B3B
:1033A000022801D9032035E6174808380068C0F321
:1033B00040600028F1D1D4E907010843616A40EA7E
:1033C00081110122A06AC2EB500041EA00412C2089
:1033D000005D41EA00600C49091F086001200B49AB
:1033E0000866FFF767F9054606E0FFF763F9401B3B
:1033F000022801D903200DE6034808380068C0F30D
:1034000040600028F1D03FE0083802400000474209
:10341000800E47420070004000201C490866FFF7FC
:1034200049F9054606E0FFF745F9401B022801D996
:103430000320EFE516480068C0F340600028F2D191
:1034400022E0A069012800D1E4E51148001D0668CA
:1034500006F48001E069814214D106F03F01206A40
:1034600081420FD147F6C0703040616A884209D16D
:1034700006F44031A06A814204D106F07061E06A2E
:10348000814201D00120C5E50020C3E5000047428C
:1034900000380240704702460023106800F15003D4
:1034A00003EB81031868704710B50023046804F12A
:1034B000500303EB81031A6010BD704710B504463A
:1034C0002068C068C0F3802050B12046FFF7F5FFA8
:1034D0002068C06800F0800060F490602168C860D7
:1034E0004FF48000024908600120607710BD0000A1
:1034F000143C014010B5044600BF03F0C3FE8E2308
:1035000004A20A490AA006F0CDF903F0AFFE00BFFD
:1035100010BD00002E2E5C5372635C6472765C7288
:1035200074635C7274632E630000000093D402081D
:103530001B5B313B33316D5B202573205D202025E3
:103540007320286C696E6520256429202D3E20415A
:103550004C41524D2041210D0A0D0A1B5B306D007C
:1035600010B5044620688068C0F3003078B1206848
:10357000C068C0F3002050B12046FFF7BBFF2068B1
:10358000C06800F0800060F4C0702168C8602068E6
:103590008068C0F3403078B12068C068C0F3402034
:1035A00050B12046FFF776FF2068C06800F0800029
:1035B00060F420702168C8604FF400300249086050
:1035C0000120607710BD0000143C014010B5044696
:1035D0000CB9012010BD607F20B900202077204663
:1035E00000F060F80220607700BFCA2021684862BE
:1035F00053202168486200BF204604F0EEF940B134
:1036000000BFFF202168486200BF042060770120CE
:10361000E0E72068806822490840216888602169C5
:103620006068084361690843216889680843216824
:1036300088602168E068086120680169208941EAA2
:103640000040216808612068C06820F0800021687F
:10365000C8602068806800F0200060B9204600F053
:1036600067F940B100BFFF202168486200BF042015
:1036700060770120AEE72068006C20F4802021688C
:1036800008642068006CA16908432168086400BFD1
:10369000FF202168486200BF01206077002099E781
:1036A000BFFF8FFF10B59AB0044600BF0020019005
:1036B0001148006840F080500F49086008460068D3
:1036C00000F08050019000BF00BFFFF799F904207F
:1036D0000E9000201490012010900EA8FFF796FC89
:1036E00020200290C0000C9002A8FFF7ABF9012047
:1036F000024908601AB010BD403802403C0E4742F3
:103700002DE9F04104460D461646002700BF207FF4
:10371000012802D10220BDE8F0810120207700BFFE
:10372000022060774EB9687800F01000102804D1AC
:10373000687800F0EF000A30687086B9E87804F025
:103740003FF90304687804F03BF943EA0023A878C2
:1037500004F036F90343287843EA403709E0E87873
:103760000004697840EA0120A9780843297840EAF2
:10377000413700BFCA20216848625320216848624F
:1037800000BF204604F029F960B100BFFF20216886
:10379000486200BF0420607700BF0020207700BF90
:1037A0000120B8E716483840216848602068C068A2
:1037B00020F080002168C8602068806800F0200048
:1037C00080B9204600F0B4F860B100BFFF20216846
:1037D000486200BF0420607700BF0020207700BF50
:1037E000012098E700BFFF202168486200BF012048
:1037F000607700BF0020207700BF00BF8BE700008C
:103800003FFFFF002DE9F04104460D461646002714
:1038100000BF207F012802D10220BDE8F0810120F5
:10382000207700BF02206077CEB92068806800F062
:10383000400000B102E00020E87000BF287804F0EA
:10384000BFF80304687804F0BBF843EA0023A878C3
:1038500004F0B6F80343E87843EA004712E0206832
:10386000806800F0400000B102E00020E87000BF76
:1038700028780004697840EA0120A9780843E978AB
:1038800040EA014700BFCA202168486253202168EE
:10389000486200BF204604F0A0F860B100BFFF20DE
:1038A0002168486200BF0420607700BF00202077B5
:1038B00000BF0120B1E71D4838402168086020683A
:1038C000806820F4802021688860D5E903010843DE
:1038D000216889680843216888602068C06820F0F2
:1038E00080002168C8602068806800F0200080B9EE
:1038F000204600F01DF860B100BFFF20216848623B
:1039000000BF0420607700BF0020207700BF0120A7
:1039100083E700BFFF202168486200BF0120607775
:1039200000BF0020207700BF00BF76E77F7F7F00C9
:1039300070B5044600252068C06820F0A00021680A
:10394000C860FEF7B7FE054607E0FEF7B3FE401B72
:10395000B0F57A7F01D9032070BD2068C06800F0FF
:1039600020000028F1D00020F6E770B504460D468F
:103970000CB9012070BD94F82C0028B9002084F8FF
:103980002D00204600F012F8022084F82C00211DA2
:103990002068FDF77AFB2946D4E90002FDF7E0FB39
:1039A000012084F82C000020E4E7000010B586B068
:1039B000044600BF002000904348006840F001002A
:1039C000414908600846006800F00100009000BF0F
:1039D00000BF00BF002000903B480838006840F05E
:1039E00004003949083908600846006800F00400FE
:1039F000009000BF00BF00BF002000900846006894
:103A000040F0080008600846006800F008000090D8
:103A100000BF00BF00BF002000900846006840F0D3
:103A2000100008600846006800F01000009000BF19
:103A300000BF00BF002000900846006840F0200052
:103A400008600846006800F02000009000BF00BF3A
:103A500000BF002000900846006840F04000086069
:103A60000846006800F04000009000BF00BF0D2035
:103A700001900220029001200390032004900C206A
:103A8000059001A91148FEF7F9FC4CF20370019072
:103A900001A90F48FEF7F2FC4FF68370019001A9CF
:103AA0000C48FEF7EBFC4FF63F00019001A90A48D5
:103AB000FEF7E4FC48F23710019001A90748FEF731
:103AC000DDFC06B010BD000038380240000802409E
:103AD000000C024000100240001402400018024096
:103AE00070B504460D4694F82C00022800D170BD34
:103AF000022084F82C0029462068FDF700FB0120F5
:103B000084F82C000020F2E770B504460D461646F6
:103B100094F82C00022800D170BD022084F82C00FB
:103B2000324629462068FDF7F1FA2868022803D1B9
:103B3000052084F82C0002E0012084F82C000020ED
:103B4000EAE710B50446FCF725FF10BD7047F8B54D
:103B50000446002000906946204604F036FA0546E7
:103B600015B1A06B2843A0630098C0F343263046EC
:103B7000F8BD000070B50446256B2068406BC0F3AB
:103B8000C03030B105F0080018B1204604F0F8F953
:103B9000F8E02068406BC0F30020002862D04FF4AA
:103BA0008070216888632068C06B4CF23A3188438A
:103BB0002168C8632068C06A20F001002168C862DB
:103BC00005F0080038B305F0020010B905F0200038
:103BD00050B1206804F016F806462EB1A06B3043B1
:103BE000A0632046FFF7B2FF40F23A502168886395
:103BF000012084F834000020206305F0010010B992
:103C000005F0020018B1204600F0C2F8BAE02046E4
:103C100000F0C3F8B6E005F080000028B8D005F049
:103C2000200050B1206803F0EDFF06462EB1A06BD6
:103C30003043A0632046FFF789FF05F0010000280C
:103C4000A6D105F002000028A2D12068C06A20F0A9
:103C500008002168C862012084F83400204600F082
:103C60009CF88FE02068406BC0F3803030B105F0E5
:103C7000080018B1204604F0C0F983E02068406BCA
:103C800040F23A21084008B1012000E0002000285D
:103C900078D02068406BC0F3400018B1A06B40F0B2
:103CA0000200A0632068406BC0F3C00018B1A06B95
:103CB00040F00800A0632068406BC0F3401018B1CA
:103CC000A06B40F02000A0632068406BC0F30010A0
:103CD00018B1A06B40F01000A0632068406BC0F3E7
:103CE000402018B1A06B40F00800A06340F23A7089
:103CF000216888632068C06B40F23A3188432168AC
:103D0000C863206803F07EFFA16B0843A06305F041
:103D1000080040B1012084F83400002020632046D0
:103D2000FFF714FF2EE005F0800000B305F010004F
:103D300010B905F0200050B11348E16B0865E06B45
:103D4000FEF730F998B1E06B04F0F6F81AE005F0F0
:103D5000010010B905F0020050B10C48216C086553
:103D6000206CFEF71FF910B1206C04F0C1F809E0D7
:103D70000020A063012084F8340000202063204646
:103D8000FFF7DFFE70BD0000397F0008F17E0008FC
:103D900010B50446FCF700FE10BD10B50446FCF754
:103DA00005FE10BD70B504460E4615460CB901203F
:103DB00070BD94F8490028B9002084F848002046D6
:103DC00000F01CF804F108012068FDF7F3F8314613
:103DD000A2682068FDF728F92946236BD4E901027F
:103DE000FDF7C4F8A168206850F8210040F00100F8
:103DF000A268216841F822000020D9E710B50446E6
:103E0000FEF7C4FA10BD70477047000030B5024697
:103E10000B4600BF92F83C00012801D1022030BDC2
:103E2000012082F83C0000BF022082F83D001068AB
:103E300044681068816824F07004186804431068AE
:103E40004460184D1068A8421BD01068B0F1804F34
:103E500017D0154D1068A84213D0144D1068A84211
:103E60000FD0134D1068A8420BD0124D1068A84215
:103E700007D0114D1068A84203D0104D1068A84219
:103E800005D121F08001586801431068816001204C
:103E900082F83D0000BF002082F83C0000BF00BF58
:103EA000BDE70000000001400004004000080040A1
:103EB000000C004000040140004001400018004098
:103EC00010B504460CB9012010BD94F83D0028B986
:103ED000002084F83C00204600F00CF8022084F812
:103EE0003D00211D206804F02DFA012084F83D00DA
:103EF0000020E9E738B504460E492068884217D10A
:103F000000BF002000900C48006840F002000A4901
:103F100008600846006800F00200009000BF00BF83
:103F2000002201211D20FEF7B1FC1D20FEF79EFCA2
:103F300038BD0000000400404038024001460868D7
:103F4000C06840F001000B68D8600868806800F025
:103F50000702062A05D00868006840F001000B68D7
:103F60001860002070472DE9F04104460D4600BF5F
:103F700094F83C00012802D10220BDE8F081012024
:103F800084F83C0000BF022084F83D002068866869
:103F900026F0770626F47F46206886602868502839
:103FA00033D00CDC202850D004DC00284BD0102863
:103FB00051D149E0302849D040284CD139E060281F
:103FC0002DD0702807D0B0F5805F03D0B0F5005F2A
:103FD00041D10DE040E0D5E902136A68206804F0A1
:103FE0001DFA2068866846F077062068866033E010
:103FF000D5E902136A68206804F010FA2068806826
:1040000040F480402168886026E0EA68696820689A
:1040100004F018FA5021206804F00BFA1CE0EA685A
:104020006968206804F021FA6021206804F001FA30
:1040300012E0EA686968206804F004FA4021206808
:1040400004F0F7F908E000BF00BF00BF296820684E
:1040500004F0EFF900E000BF00BF012084F83D004C
:1040600000BF002084F83C0000BF00BF85E7704718
:1040700010B5044620680069C0F34000D8B120683C
:10408000C068C0F34000B0B16FF002002168086161
:10409000012020772068806900F0030018B12046D5
:1040A000FFF7E5FF05E0204600F0ADF8204600F000
:1040B000ABF80020207720680069C0F38000D8B1F9
:1040C0002068C068C0F38000B0B16FF004002168C0
:1040D0000861022020772068806900F4407018B1E0
:1040E0002046FFF7C4FF05E0204600F08CF820468C
:1040F00000F08AF80020207720680069C0F3C00033
:10410000D8B12068C068C0F3C000B0B16FF008003B
:1041100021680861042020772068C06900F003004E
:1041200018B12046FFF7A3FF05E0204600F06BF82A
:10413000204600F069F80020207720680069C0F36D
:104140000010D8B12068C068C0F30010B0B16FF0A3
:10415000100021680861082020772068C06900F4F9
:10416000407018B12046FFF782FF05E0204600F0BE
:104170004AF8204600F048F80020207720680069BF
:1041800000F0010058B12068C06800F0010030B1B3
:104190006FF0010021680861204600F037F82068C0
:1041A0000069C0F3C01058B12068C068C0F3C010E7
:1041B00030B16FF08000216808612046FFF723FED0
:1041C00020680069C0F3801058B12068C068C0F34F
:1041D000801030B16FF0400021680861204600F087
:1041E0002BF820680069C0F3401058B12068C068FF
:1041F000C0F3401030B16FF0200021680861204604
:10420000FFF702FE10BD70477047000010B504466E
:1042100007492068884202D1FEF78EFA06E0054978
:104220002068884202D101201EF00AFC10BD000067
:1042300000080040000400407047000010B586B040
:104240000446142101A8FCF777F81B49206888422E
:104250002FD100BF002000901848006840F01000E7
:10426000164908600846006800F01000009000BF82
:1042700000BF00BF0020009010481438006840F0D4
:1042800001000E49143908600846006800F001007A
:10429000009000BF00BF481501901220029000203E
:1042A0000390032004900720059001A90448FEF71D
:1042B000E5F806B010BD000000100140443802408F
:1042C0000000024000BFFEE77047000070B5072500
:1042D000002406E0044951F82400FCF72FFB601C81
:1042E000C4B2AC42F6DB70BD0400022070B50446D7
:1042F000002609480588408845430021084602F009
:104300006BFD02F099FF00BF02E004490C80761CAF
:10431000AE42FAD370BD0000EC120220000008602B
:104320002DE9F84F07460D4690469946DDF828B02E
:10433000A8EB0700401C1FFA80FAA9EB0500401CFF
:1043400080B20090002414E0281981B2384602F0AF
:1043500043FD02F071FF002607E004FB0A603BF812
:10436000100006490880701C86B25645F5DB601CBB
:1043700084B200988442E7DBBDE8F88F0000086053
:1043800010B5044655488471002C51D1F020534992
:1043900008804FF4A07048800846808849F2413177
:1043A000884205D04D48808845F21031884214D1AA
:1043B0002C204A4908812A2048812B2088810846E0
:1043C000808845F21031884206D14FF4A0704349ED
:1043D00008804FF4F07048807BE04048808845F2C8
:1043E0001051884210D14FF430503C4908814FF4AD
:1043F000285048814FF42C5088814FF4F070088089
:104400004FF44870488064E03448808841F6631176
:1044100088425ED12C20314908812B2048812A20F6
:1044200088814FF4F07008804FF44870488050E065
:104430004FF4A07029490880F02048800846808801
:1044400049F24131884205D02448808845F2103134
:10445000884207D12C20214908812A2048812B201D
:10446000888129E01D48808845F21051884210D18A
:104470004FF43050194908814FF4285048814FF4C7
:104480002C5088814FF4487008804FF4F0704880B9
:1044900012E01248808841F6631188420CD12C202A
:1044A0000E4908812A2048812B2088814FF44870CA
:1044B00008804FF4F07048800848808845F2103139
:1044C000884206D14FF4F070044908804FF4A07080
:1044D0004880002002F046FB10BD0000EC120220D4
:1044E0002DE9FF4F84B081468A4600200390029058
:1044F0000698A0EB09050798A0EB0A06CDF80490F2
:10450000CDF800A0002D01DD012705E00DB9002741
:1045100002E04FF0FF376D42002E02DD4FF0010840
:1045200006E016B94FF0000802E04FF0FF3876427F
:10453000B54201DD2C4600E034464FF0000B21E08F
:10454000009A91B2019A90B200F022F803982844A0
:1045500003900298304402900398A04205DD03982E
:10456000001B03900198384401900298A04205DD99
:104570000298001B02900098404400900BF101004B
:104580001FFA80FB601C8345DADD08B0BDE8F08FC0
:1045900030B504460D462946204602F01DFC02F0C7
:1045A0004BFE024800880249088030BDC800022046
:1045B000000008602DE9F04306460F4690460024AF
:1045C00045460320A0EB48093CE07A1B91B2321922
:1045D00090B2FFF7DDFF3A1B91B2721990B2FFF76C
:1045E000D7FF3A1991B2721990B2FFF7D1FF7A1939
:1045F00091B2321990B2FFF7CBFF7A1991B2321B08
:1046000090B2FFF7C5FF3A1991B2721B90B2FFF753
:10461000BFFF7A1B91B2321B90B2FFF7B9FF3A1B72
:1046200091B2721B90B2FFF7B3FF641CB9F1000F97
:1046300003DAA000801D814404E0601B80000A3082
:1046400081446D1EAC42C0DDBDE8F08330B5044648
:104650000D463E48808849F24131884205D03B48AA
:10466000808845F21031884214D13849488902F0D7
:10467000D7FD201202F0C8FDE0B202F0C5FD3349BB
:10468000888902F0CDFD281202F0BEFDE8B202F0EA
:10469000BBFD54E02D48808845F21051884220D15E
:1046A0002A49488902F0BCFD201202F0ADFD2749DD
:1046B0004989491C88B202F0B3FDE0B202F0A4FDC2
:1046C0002249888902F0ACFD281202F09DFD1F49A5
:1046D0008989491C88B202F0A3FDE8B202F094FD7A
:1046E0002DE01A48808841F66311884227D1174887
:1046F000807920B915480088401E001B84B21349F8
:10470000488902F08DFD201202F07EFDE0B202F039
:104710007BFD201202F078FDE0B202F075FD0B493E
:10472000888902F07DFD281202F06EFDE8B202F0E9
:104730006BFD281202F068FDE8B202F065FD034847
:10474000008903490880891C0A8030BDEC120220D0
:10475000FEFF076010B5D32002F062FD02F0C8F939
:10476000FE49888002F0C4F9FC49888002F0C0F953
:10477000FA498880084680884FF6FF7101EA0020D8
:10478000F649888002F0B4F9F44989880843F3496E
:1047900088800846808849F24131884278D0D42008
:1047A00002F03EFD02F0A4F9EC49888002F0A0F985
:1047B000EA49888002F09CF9E849888008468088A8
:1047C0004FF6FF7101EA0020E449888002F090F979
:1047D000E24989880843E14988800846808845F293
:1047E0001031884254D04FF45A4002F019FD02F0C3
:1047F0007FF9DA4988804FF45B4002F011FD02F046
:1048000077F9D6498880084680884FF6FF7101EA1B
:104810000020D24988804FF45C4002F001FD02F094
:1048200067F9CE4989880843CC4988800846808842
:10483000B0F5004F02D145F210508880C7488088FB
:1048400045F21051884223D0A12002F0E9FC02F089
:104850004FF9C249888002F04BF9C0498880084668
:1048600080884FF6FF7101EA0020BC49888002F081
:104870003FF9BA4989880843B84988800846808842
:1048800045F26171884203D141F66310B3498880D3
:10489000B248808849F2413188427CD1CF2002F071
:1048A000BFFC002002F0B0FCC12002F0ADFC3020C3
:1048B00002F0AAFCED2002F0B3FC642002F0A4FC9C
:1048C000032002F0A1FC122002F09EFC812002F0E5
:1048D0009BFCE82002F0A4FC852002F095FC10204F
:1048E00002F092FC7A2002F08FFCCB2002F098FCC0
:1048F000392002F089FC2C2002F086FC002002F016
:1049000083FC342002F080FC022002F07DFCF720C2
:1049100002F086FC202002F077FCEA2002F080FC06
:10492000002002F071FC002002F06EFCC02002F0BA
:1049300077FC1B2002F068FCC12002F071FC012012
:1049400002F062FCC52002F06BFC302002F05CFC3F
:10495000302002F059FCC72002F062FCB72002F0C0
:1049600053FC362002F05CFC482002F04DFC3A205B
:1049700002F056FC552002F047FCB12002F050FC3A
:10498000002002F041FC1A2002F03EFCB62002F0AA
:1049900047FC0A2000E096E002F036FCA22002F07C
:1049A00033FCF22002F03CFC002002F02DFC26201B
:1049B00002F036FC012002F027FCE02002F030FC7F
:1049C0000F2002F021FC2A2002F01EFC282002F019
:1049D0001BFC082002F018FC0E2002F015FC082039
:1049E00002F012FC542002F00FFCA92002F00CFC93
:1049F000432002F009FC0A2002F006FC0F2002F01E
:104A000003FC002002F000FC002002F0FDFB00206F
:104A100002F0FAFB002002F0F7FBE12002F000FCBC
:104A2000002002F0F1FB152002F0EEFB172002F04F
:104A3000EBFB072002F0E8FB112002F0E5FB06206B
:104A400002F0E2FB2B2002F0DFFB562002F0DCFB41
:104A50003C2002F0D9FB052002F0D6FB102002F02A
:104A6000D3FB0F2002F0D0FB3F2002F0CDFB3F2014
:104A700002F0CAFB0F2002F0C7FB2B2002F0D0FB94
:104A8000002002F0C1FB002002F0BEFB012002F07A
:104A9000BBFB3F2002F0B8FB2A2002F0C1FB002044
:104AA00002F0B2FB002002F0AFFB002002F0ACFBF2
:104AB000EF2002F0A9FB112002F0B2FB292002F046
:104AC000AFFB01F0C2BF2548808845F21031884213
:104AD00040F07C87ED2002F0A3FB012002F094FB64
:104AE000FE2002F091FBEE2002F09AFBDE2002F0A5
:104AF0008BFB212002F088FBF12002F091FB0120CA
:104B000002F082FBDF2002F08BFB102002F07CFB26
:104B1000C42002F085FB8F2002F076FBC62002F055
:104B20007FFB002002F070FBE22002F06DFBE22030
:104B300002F06AFBE22002F067FBBF2002F070FB8C
:104B4000AA2002F061FBB02002F06AFB0D2002F007
:104B50005BFB002002F058FB0D2001E0EC1202206C
:104B600002F052FB002002F04FFB112002F04CFB40
:104B7000002002F049FB192002F046FB002002F061
:104B800043FB212002F040FB002002F03DFB2D20E2
:104B900002F03AFB002002F037FB3D2002F034FB2C
:104BA000002002F031FB5D2002F02EFB002002F01D
:104BB0002BFB5D2002F028FB002002F025FBB1203A
:104BC00002F02EFB802002F01FFB002002F01CFBF5
:104BD0008B2002F019FB002002F016FB962002F059
:104BE00013FB002002F010FBB22002F019FB0020A2
:104BF00002F00AFB002002F007FB022002F004FB97
:104C0000002002F001FB032002F0FEFA002002F077
:104C1000FBFAB32002F004FB002002F0F5FA0020BA
:104C200002F0F2FA002002F0EFFA002002F0ECFAB3
:104C3000002002F0E9FA002002F0E6FA002002F07B
:104C4000E3FA002002F0E0FA002002F0DDFA002092
:104C500002F0DAFA002002F0D7FA002002F0D4FACB
:104C6000002002F0D1FA002002F0CEFA002002F07B
:104C7000CBFA002002F0C8FA002002F0C5FA0020AA
:104C800002F0C2FA002002F0BFFA002002F0BCFAE3
:104C9000002002F0B9FA002002F0B6FA002002F07B
:104CA000B3FA002002F0B0FAB42002F0B9FA8B2077
:104CB00002F0AAFA002002F0A7FA962002F0A4FA65
:104CC000002002F0A1FAA12002F09EFA002002F0DA
:104CD0009BFAB52002F0A4FA022002F095FA002017
:104CE00002F092FA032002F08FFA002002F08CFA10
:104CF000042002F089FA002002F086FAB62002F0C1
:104D00008FFA002002F080FA002002F07DFAB7202E
:104D100002F086FA002002F077FA002002F074FA1E
:104D20003F2002F071FA002002F06EFA5E2002F0DD
:104D30006BFA002002F068FA642002F065FA0020A5
:104D400002F062FA8C2002F05FFA002002F05CFAB6
:104D5000AC2002F059FA002002F056FADC2002F0F2
:104D600053FA002002F050FA702002F04DFA0020B1
:104D700002F04AFA902002F047FA002002F044FACA
:104D8000EB2002F041FA002002F03EFADC2002F0B3
:104D90003BFA002002F038FAB82002F041FA002075
:104DA00002F032FA002002F02FFA002002F02CFA72
:104DB000002002F029FA002002F026FA002002F07A
:104DC00023FA002002F020FA002002F01DFABA2097
:104DD00002F026FA242002F017FA002002F014FA5A
:104DE000002002F011FA002002F00EFAC12002F0B9
:104DF00017FA202002F008FA002002F005FA5420E9
:104E000002F002FA002002F0FFF9FF2002F0FCF9A4
:104E1000002002F0F9F9C22002F002FA0A2002F0A2
:104E2000F3F9002002F0F0F9042002F0EDF900207F
:104E300002F0EAF9C32002F0F3F93C2002F0E4F9B1
:104E4000002002F0E1F93A2002F0DEF9002002F041
:104E5000DBF9392002F0D8F9002002F0D5F937202B
:104E600002F0D2F9002002F0CFF93C2002F0CCF998
:104E7000002002F0C9F9362002F0C6F9002002F045
:104E8000C3F9322002F0C0F9002002F0BDF92F2052
:104E900002F0BAF9002002F0B7F92C2002F0B4F9C0
:104EA000002002F0B1F9292002F0AEF9002002F052
:104EB000ABF9262002F0A8F9002002F0A5F9242081
:104EC00002F0A2F9002002F09FF9242002F09CF9E0
:104ED000002002F099F9232002F096F9002002F058
:104EE00093F93C2002F090F9002002F08DF9362071
:104EF00002F08AF9002002F087F9322002F084F9EA
:104F0000002002F081F92F2002F07EF9002002F04B
:104F10007BF92C2002F078F9002002F075F92920A5
:104F200002F072F9002002F06FF9262002F06CF90D
:104F3000002002F069F9242002F066F9002002F056
:104F400063F9242002F060F9002002F05DF92320CB
:104F500002F05AF9002002F057F9C42002F060F97B
:104F6000622002F051F9002002F04EF9052002F013
:104F70004BF9002002F048F9842002F045F90020A6
:104F800002F042F9F02002F03FF9002002F03CF973
:104F9000182002F039F9002002F036F9A42002F0BE
:104FA00033F9002002F030F9182002F02DF900202A
:104FB00002F02AF9502002F027F9002002F024F92B
:104FC0000C2002F021F9002002F01EF9172002F057
:104FD0001BF9002002F018F9952002F015F90020C5
:104FE00002F012F9F32002F00FF9002002F00CF9A0
:104FF000E62002F009F9002002F006F9C52002F0CF
:105000000FF9322002F000F9002002F0FDF84420F0
:1050100002F0FAF8002002F0F7F8652002F0F4F848
:10502000002002F0F1F8762002F0EEF8002002F005
:10503000EBF8882002F0E8F8002002F0E5F8C6203E
:1050400002F0EEF8202002F0DFF8002002F0DCF899
:10505000172002F0D9F8002002F0D6F8012002F063
:10506000D3F8002002F0D0F8C72002F0D9F80020D1
:1050700002F0CAF8002002F0C7F8002002F0C4F8DD
:10508000002002F0C1F8C82002F0CAF8002002F0A7
:10509000BBF8002002F0B8F8002002F0B5F80020BC
:1050A00002F0B2F8C92002F0BBF8002002F0ACF820
:1050B000002002F0A9F8002002F0A6F8002002F07B
:1050C000A3F8002002F0A0F8002002F09DF80020D4
:1050D00002F09AF8002002F097F8002002F094F80D
:1050E000002002F091F8002002F08EF8002002F07B
:1050F0008BF8002002F088F8002002F085F80020EC
:1051000002F082F8002002F07FF8E02002F088F838
:10511000162002F079F8002002F076F81C2002F048
:1051200073F8002002F070F8212002F06DF80020E2
:1051300002F06AF8362002F067F8002002F064F806
:10514000462002F061F8002002F05EF8522002F0E2
:105150005BF8002002F058F8642002F055F80020B7
:1051600002F052F87A2002F04FF8002002F04CF8DA
:105170008B2002F049F8002002F046F8992002F056
:1051800043F8002002F040F8A82002F03DF800208B
:1051900002F03AF8B92002F037F8002002F034F8B3
:1051A000C42002F031F8002002F02EF8CA2002F0EC
:1051B0002BF8002002F028F8D22002F025F8002079
:1051C00002F022F8D92002F01FF8002002F01CF8AB
:1051D000E02002F019F8002002F016F8F32002F0A7
:1051E00013F8002002F010F8E12002F019F8162060
:1051F00002F00AF8002002F007F81C2002F004F880
:10520000002002F001F8222001F0FEFF002001F052
:10521000FBFF362001F0F8FF002001F0F5FF4520EC
:1052200001F0F2FF002001F0EFFF522001F0ECFF4F
:10523000002001F0E9FF642001F0E6FF002001F00A
:10524000E3FF7A2001F0E0FF002001F0DDFF8B207A
:1052500001F0DAFF002001F0D7FF992001F0D4FF20
:10526000002001F0D1FFA82001F0CEFF002001F0C6
:10527000CBFFB92001F0C8FF002001F0C5FFC4201A
:1052800001F0C2FF002001F0BFFFCA2001F0BCFF07
:10529000002001F0B9FFD22001F0B6FF002001F09C
:1052A000B3FFD82001F0B0FF002001F0ADFFE020F7
:1052B00001F0AAFF002001F0A7FFF32001F0A4FFF6
:1052C000002001F0A1FFE22001F0AAFF052001F07B
:1052D0009BFF002001F098FF0B2001F095FF0020BC
:1052E00001F092FF1B2001F08FFF002001F08CFFE6
:1052F000342001F089FF002001F086FF442001F0F6
:1053000083FF002001F080FF4F2001F07DFF00208F
:1053100001F07AFF612001F077FF002001F074FFB7
:10532000792001F071FF002001F06EFF882001F06C
:105330006BFF002001F068FF972001F065FF00205F
:1053400001F062FFA62001F05FFF002001F05CFF8A
:10535000B72001F059FF002001F056FFC22001F0F4
:1053600053FF002001F050FFC72001F04DFF002047
:1053700001F04AFFD12001F047FF002001F044FF77
:10538000D62001F041FF002001F03EFFDD2001F0BA
:105390003BFF002001F038FFF32001F035FF002033
:1053A00001F032FFE32001F03BFF052001F02CFF6C
:1053B000002001F029FF0A2001F026FF002001F063
:1053C00023FF1C2001F020FF002001F01DFF3320EF
:1053D00001F01AFF002001F017FF442001F014FF34
:1053E000002001F011FF502001F00EFF002001F01D
:1053F0000BFF622001F008FF002001F005FF78207C
:1054000001F002FF002001F0FFFE882001F0FCFE09
:10541000002001F0F9FE972001F0F6FE002001F0D7
:10542000F3FEA62001F0F0FE002001F0EDFEB72013
:1054300001F0EAFE002001F0E7FEC22001F0E4FEE8
:10544000002001F0E1FEC72001F0DEFE002001F0A7
:10545000DBFED12001F0D8FE002001F0D5FED520E2
:1054600001F0D2FE002001F0CFFEDD2001F0CCFEE5
:10547000002001F0C9FEF32001F0C6FE002001F07B
:10548000C3FEE42001F0CCFE012001F0BDFE0020AF
:1054900001F0BAFE012001F0B7FE002001F0B4FED9
:1054A000022001F0B1FE002001F0AEFE2A2001F042
:1054B000ABFE002001F0A8FE3C2001F0A5FE00207C
:1054C00001F0A2FE4B2001F09FFE002001F09CFEA7
:1054D0005D2001F099FE002001F096FE742001F09D
:1054E00093FE002001F090FE842001F08DFE00204C
:1054F00001F08AFE932001F087FE002001F084FE77
:10550000A22001F081FE002001F07EFEB32001F018
:105510007BFE002001F078FEBE2001F075FE002029
:1055200001F072FEC42001F06FFE002001F06CFE5D
:10553000CD2001F069FE002001F066FED32001F0CD
:1055400063FE002001F060FEDD2001F05DFE002022
:1055500001F05AFEF32001F057FE002001F054FE46
:10556000E52001F05DFE002001F04EFE002001F07C
:105570004BFE002001F048FE002001F045FE022015
:1055800001F042FE002001F03FFE292001F03CFE28
:10559000002001F039FE3C2001F036FE002001F031
:1055A00033FE4B2001F030FE002001F02DFE5D2087
:1055B00001F02AFE002001F027FE742001F024FEF5
:1055C000002001F021FE842001F01EFE002001F0E9
:1055D0001BFE932001F018FE002001F015FEA22012
:1055E00001F012FE002001F00FFEB32001F00CFECE
:1055F000002001F009FEBE2001F006FE002001F0AF
:1056000003FEC42001F000FE002001F0FDFDCD20CE
:1056100001F0FAFD002001F0F7FDD32001F0F4FDC8
:10562000002001F0F1FDDC2001F0EEFD002001F092
:10563000EBFDF32001F0E8FD002001F0E5FDE620A0
:1056400001F0EEFD112001F0DFFD002001F0DCFD96
:10565000342001F0D9FD002001F0D6FD562001F0E4
:10566000D3FD002001F0D0FD762001F0CDFD00201B
:1056700001F0CAFD772001F0C7FD002001F0C4FD54
:10568000662001F0C1FD002001F0BEFD882001F080
:10569000BBFD002001F0B8FD992001F0B5FD002010
:1056A00001F0B2FDBB2001F0AFFD002001F0ACFD28
:1056B000992001F0A9FD002001F0A6FD662001F06F
:1056C000A3FD002001F0A0FD552001F09DFD00206C
:1056D00001F09AFD552001F097FD002001F094FDA6
:1056E000452001F091FD002001F08EFD432001F0E6
:1056F0008BFD002001F088FD442001F085FD002095
:1057000001F082FDE72001F08BFD322001F07CFDED
:10571000002001F079FD552001F076FD002001F018
:1057200073FD762001F070FD002001F06DFD662014
:1057300001F06AFD002001F067FD672001F064FDC3
:10574000002001F061FD672001F05EFD002001F006
:105750005BFD872001F058FD002001F055FD9920E8
:1057600001F052FD002001F04FFDBB2001F04CFD87
:10577000002001F049FD992001F046FD002001F0D4
:1057800043FD772001F040FD002001F03DFD442065
:1057900001F03AFD002001F037FD562001F034FD04
:1057A000002001F031FD232001F02EFD002001F04A
:1057B0002BFD332001F028FD002001F025FD4520C0
:1057C00001F022FD002001F01FFDE82001F028FD7E
:1057D000002001F019FD002001F016FD992001F0D4
:1057E00013FD002001F010FD872001F00DFD0020C9
:1057F00001F00AFD882001F007FD002001F004FD02
:10580000772001F001FD002001F0FEFC662001F090
:10581000FBFC002001F0F8FC882001F0F5FC0020E2
:1058200001F0F2FCAA2001F0EFFC002001F0ECFCFA
:10583000BB2001F0E9FC002001F0E6FC992001F01A
:10584000E3FC002001F0E0FC662001F0DDFC00201C
:1058500001F0DAFC552001F0D7FC002001F0D4FC67
:10586000552001F0D1FC002001F0CEFC442001F0D5
:10587000CBFC002001F0C8FC442001F0C5FC002056
:1058800001F0C2FC552001F0BFFC002001F0BCFC7F
:10589000E92001F0C5FCAA2001F0B6FC002001F0CF
:1058A000B3FC002001F0B0FC002001F0ADFC0020B2
:1058B00001F0B6FCAA2001F0A7FCCF2001F0B0FC5B
:1058C000002001F0A1FC002001F09EFC002001F06E
:1058D0009BFC002001F098FC002001F095FC0020CA
:1058E00001F092FC002001F08FFC002001F08CFC04
:1058F000002001F089FC002001F086FC002001F06E
:1059000083FC002001F080FC002001F07DFC0020E1
:1059100001F07AFC002001F077FC002001F074FC1B
:10592000002001F071FCF02001F07AFC002001F071
:105930006BFC502001F068FC002001F065FC0020A9
:1059400001F062FC002001F05FFCF32001F068FC34
:10595000002001F059FCF92001F062FC062001F062
:1059600053FC102001F050FC292001F04DFC0020D8
:1059700001F04AFC3A2001F053FC552001F044FCB0
:10598000112001F04DFC64200AF04BFE292001F0AB
:1059900047FC352001F044FC002001F035FC51208B
:1059A00001F03EFCFF2001F02FFC532001F038FCF9
:1059B0002C2001F029FC552001F032FC822001F05E
:1059C00023FC2C2001F02CFC01F03FB8FE4880881D
:1059D00045F2105188427DD155214FF4704001F0BD
:1059E00035FCAA214FF2010001F030FC52214FF2A8
:1059F000020001F02BFC08214FF2030001F026FC0D
:105A000001214FF2040001F021FC0D214FF4304040
:105A100001F01CFC0D214BF2010001F017FC0D21DF
:105A20004BF2020001F012FC34214FF4364001F039
:105A30000DFC34214BF2016001F008FC34214BF2E3
:105A4000026001F003FC0D214FF4314001F0FEFB38
:105A50000D214BF2011001F0F9FB0D214BF2021068
:105A600001F0F4FB34214FF4374001F0EFFB342117
:105A70004BF2017001F0EAFB34214BF2027001F0AD
:105A8000E5FB00214FF4324001F0E0FB00214BF236
:105A9000012001F0DBFB00214BF2022001F0D6FBDC
:105AA00024214FF4384001F0D1FB24214BF60100B2
:105AB00001F0CCFB24214BF6020001F0C7FB0121D1
:105AC0004FF43F4001F0C2FB0F214FF4334001F08F
:105AD000BDFB00E0FDE30F214BF2013001F0B6FB0E
